:100000000C942A000C94430C0C94700C0C949D0CD2
:100010000C9447000C9447000C9447000C94470044
:100020000C9447000C9447000C9447000C94470034
:100030000C9447000C9447000C9447000C94470024
:100040000C9447000C9447000C9447000C94470014
:100050000C94470011241FBECFE5D8E0DEBFCDBF12
:1000600010E0A0E6B0E0EEECF1E202C005900D92E7
:10007000A237B107D9F710E0A2E7B0E001C01D92A6
:10008000A837B107E1F70E9485100C94E5100C9495
:100090000000EF92FF920F931F937B018C0120E0F1
:1000A00030E040E05FE40E94490388238CF0C801FF
:1000B000B70120E030E040E05FE40E94C1010E940F
:1000C000A9039B01AC01205030404040504806C07D
:1000D000C801B7010E94A9039B01AC01B901CA0183
:1000E0001F910F91FF90EF900895A0E0B0E0EBE733
:1000F000F0E00C94AE10DC012B01FA019C919230DF
:1001000008F439C1EB018881823008F433C194309E
:1001100069F4843009F02FC111969C91119789815F
:10012000981709F428C1A0E6B0E025C1843009F48D
:1001300021C18230A9F4923009F01DC19A01AD01AC
:1001400088E0EA010990AE01E90109929E0181501F
:10015000C1F7E201898111969C918923818308C1AD
:10016000923009F407C112962D903C901397EB0141
:100170008A819B811496AD90BD90CD90DC901797AD
:10018000EC80FD800E811F819101281B390BB90184
:1001900037FF04C066277727621B730B6032710537
:1001A0000CF061C0121613066CF537014801062EDB
:1001B00004C096948794779467940A94D2F721E0C8
:1001C00030E040E050E004C0220F331F441F551FB1
:1001D0006A95D2F721503040404050402E213F21B7
:1001E00040235123211531054105510521F021E01E
:1001F00030E040E050E079018A01E628F72808293C
:1002000019293CC0232BD1F1260E371E350146019A
:10021000062E04C096948794779467940A94D2F734
:1002200021E030E040E050E004C0220F331F441FC3
:10023000551F6A95D2F721503040404050402A2146
:100240003B214C215D21211531054105510521F04E
:1002500021E030E040E050E059016A01A628B728CB
:10026000C828D9280BC0821593052CF01C01AA249C
:10027000BB24650103C0EE24FF24870111969C91E5
:10028000D20111968C91981709F445C0992339F041
:10029000A80197012A193B094C095D0906C0A6016E
:1002A00095012E193F09400B510B57FD08C01182D3
:1002B0003382228224833583468357831DC081E0A5
:1002C00081833382228288279927DC01821B930B4A
:1002D000A40BB50B84839583A683B7830DC0220F2F
:1002E000331F441F551F24833583468357838281E0
:1002F000938101979383828324813581468157813D
:10030000DA01C9010197A109B1098F5F9F4FAF4F72
:10031000BF4328F30BC0918333822282EA0CFB1C7B
:100320000C1D1D1DE482F5820683178383E0808304
:10033000248135814681578157FF1AC0C901AA27F8
:1003400097FDA095BA2F81709070A070B0705695EF
:10035000479537952795822B932BA42BB52B848318
:100360009583A683B7838281938101969383828349
:10037000DF0101C0D201CD01CDB7DEB7E2E10C94BF
:10038000CA10A0E2B0E0E7ECF1E00C94BA10698387
:100390007A838B839C832D833E834F835887E9E048
:1003A000EE2EF12CEC0EFD1ECE010196B7010E943F
:1003B000D2048E010F5E1F4FCE010596B8010E9438
:1003C000D2048A8991E089278A8BC701B801AE01DE
:1003D000475E5F4F0E9475000E94FD03A096E6E015
:1003E0000C94D610A0E2B0E0E8EFF1E00C94BA1063
:1003F00069837A838B839C832D833E834F835887C5
:10040000F9E0EF2EF12CEC0EFD1ECE010196B701A6
:100410000E94D2048E010F5E1F4FCE010596B801D7
:100420000E94D204C701B801AE01475E5F4F0E942F
:1004300075000E94FD03A096E6E00C94D610A0E2A1
:10044000B0E0E5E2F2E00C94AE1069837A838B832E
:100450009C832D833E834F835887CE010196BE0136
:10046000675F7F4F0E94D204CE010596BE016F5E8A
:100470007F4F0E94D2049985923088F0898982301A
:10048000C8F0943019F4823051F404C0843029F457
:10049000923081F480E690E0C6C0923049F420E0CA
:1004A0009A858A89981321E02A87CE010996BBC0D4
:1004B000823049F420E09A858A89981321E02A8BBA
:1004C000CE014196B0C02D843E844F8458886D88FB
:1004D0007E888F88988CEE24FF248701AA24BB2471
:1004E000650140E050E060E070E0E0E0F0E0C10174
:1004F00081709070892BE9F0E60CF71C081D191D1E
:100500009A01AB012A0D3B1D4C1D5D1D80E090E062
:10051000A0E0B0E0E614F7040805190520F481E036
:1005200090E0A0E0B0E0BA01A901480F591F6A1F8E
:100530007B1FAA0CBB1CCC1CDD1C97FE08C081E0F5
:1005400090E0A0E0B0E0A82AB92ACA2ADB2A3196B6
:10055000E032F10549F0660C771C881C991C569412
:10056000479437942794C3CFFA85EA892B893C892D
:100570008B859C85280F391F2E5F3F4F17C0CA01FE
:1005800081709070892B61F016950795F794E79428
:1005900080E090E0A0E0B0E8E82AF92A0A2B1B2BC3
:1005A00076956795579547952F5F3F4F77FDE7CF36
:1005B0000CC0440F551F661F771F17FD4160EE0CDE
:1005C000FF1C001F111F21503040403090E05907A0
:1005D00090E0690790E4790760F32B8F3C8FDB0193
:1005E000CA018F779070A070B07080349105A1051A
:1005F000B10561F447FD0AC0E114F10401051105DC
:1006000029F0405C5F4F6F4F7F4F40781A8EFE1786
:1006100011F081E08A8F4D8F5E8F6F8F78A383E01A
:10062000898FCE0149960E94FD03A096E2E10C94C9
:10063000CA10A8E1B0E0EFE1F3E00C94BA106983CE
:100640007A838B839C832D833E834F83588789E0F5
:10065000E82EF12CEC0EFD1ECE010196B7010E9492
:10066000D2048E010F5E1F4FCE010596B8010E9485
:10067000D2048985823040F08989823028F0C70110
:10068000B8010E944A0501C08FEF6896E6E00C941D
:10069000D610A8E1B0E0EFE4F3E00C94BA1069835F
:1006A0007A838B839C832D833E834F83588789E095
:1006B000E82EF12CEC0EFD1ECE010196B7010E9432
:1006C000D2048E010F5E1F4FCE010596B8010E9425
:1006D000D2048985823040F08989823028F0C701B0
:1006E000B8010E944A0501C08FEF6896E6E00C94BD
:1006F000D610A8E1B0E0EFE7F3E00C94BA106983FC
:100700007A838B839C832D833E834F83588789E034
:10071000E82EF12CEC0EFD1ECE010196B7010E94D1
:10072000D2048E010F5E1F4FCE010596B8010E94C4
:10073000D2048985823040F08989823028F0C7014F
:10074000B8010E944A0501C081E06896E6E00C9479
:10075000D610ACE0B0E0EFEAF3E00C94BE10698391
:100760007A838B839C83CE010196BE016B5F7F4FA2
:100770000E94D2048D81823061F1823050F1843048
:1007800021F48E81882351F12EC02F81388537FDC9
:1007900020C06E812F3131051CF06623F9F023C093
:1007A0008EE190E0821B930B29853A854B855C8511
:1007B00004C056954795379527958A95D2F76623B5
:1007C000B1F050954095309521953F4F4F4F5F4F79
:1007D0000EC020E030E040E050E009C02FEF3FEFD6
:1007E0004FEF5FE704C020E030E040E050E8B9019F
:1007F000CA012C96E2E00C94DA10DF92EF92FF929D
:100800000F931F93FC01E480F58006811781D1804E
:100810008081823048F480E090E0A0E1B0E0E82AF6
:10082000F92A0A2B1B2BA5C0843009F49FC0823003
:1008300021F4EE24FF24870105C0E114F104010531
:10084000110519F4E0E0F0E096C0628173819FEF3A
:10085000623879070CF05BC022E83FEF261B370BAC
:100860002A3131052CF020E030E040E050E02AC091
:10087000B801A701022E04C0769567955795479554
:100880000A94D2F781E090E0A0E0B0E004C0880FC5
:10089000991FAA1FBB1F2A95D2F70197A109B10979
:1008A0008E219F21A023B1230097A105B10521F03E
:1008B00081E090E0A0E0B0E09A01AB01282B392B59
:1008C0004A2B5B2BDA01C9018F779070A070B07052
:1008D00080349105A105B10539F427FF09C0205CDA
:1008E0003F4F4F4F5F4F04C0215C3F4F4F4F5F4F13
:1008F000E0E0F0E02030A0E03A07A0E04A07A0E402
:100900005A0710F0E1E0F0E079018A0127C0603871
:10091000710564F5FB01E158FF4FD801C7018F77DE
:100920009070A070B07080349105A105B10539F4C4
:10093000E7FE0DC080E490E0A0E0B0E004C08FE3EB
:1009400090E0A0E0B0E0E80EF91E0A1F1B1F17FFA1
:1009500005C016950795F794E794319687E01695AC
:100960000795F794E7948A95D1F705C0EE24FF2404
:100970008701EFEFF0E06E2F679566276795902F60
:100980009F77D794DD24D7948E2F8695492F462BB9
:10099000582F5D29B701CA011F910F91FF90EF9069
:1009A000DF900895FC01DB01408151812281622F9B
:1009B0006F7770E0221F2227221F9381892F880FD3
:1009C000822B282F30E0991F9927991F11969C930D
:1009D000119721153105A9F54115510561057105DD
:1009E00011F482E037C082E89FEF13969C938E93B8
:1009F00012979A01AB0167E0220F331F441F551F66
:100A00006A95D1F783E08C930DC0220F331F441FEA
:100A1000551F12968D919C911397019713969C9355
:100A20008E931297203080E0380780E0480780E4FA
:100A3000580758F314962D933D934D935C93179755
:100A400008952F3F310579F4411551056105710570
:100A500019F484E08C93089564FF03C081E08C93C3
:100A600012C01C9210C02F57304013963C932E9307
:100A7000129783E08C9387E0440F551F661F771F02
:100A80008A95D1F7706414964D935D936D937C9322
:100A9000179708951F93DC01FB019C91923008F495
:100AA00047C08081823008F443C0943051F41196DD
:100AB0001C91843099F58181682F70E0611B710968
:100AC0003FC0843021F0923031F48230B9F181811D
:100AD000882389F12DC011961C9111978230F1F075
:100AE00081811817D9F412962D913C911397828128
:100AF00093818217930794F028173907BCF0149656
:100B00008D919D910D90BC91A02D248135814681C0
:100B10005781281739074A075B0718F4112341F05A
:100B20000AC082179307A407B50740F4112319F0F0
:100B300061E070E005C06FEF7FEF02C060E070E041
:100B4000CB011F910895DF93CF93CDB7DEB7E89720
:100B50000FB6F894DEBF0FBECDBFE4E3F0E08FEF39
:100B60008083EAE3F0E08FEF808381E00E949207C8
:100B700080E090E0A0E2B2E48DAB9EABAFABB8AF4B
:100B80006DA97EA98FA998AD20E030E04AEF54E42A
:100B90000E941F02DC01CB0189AB9AABABABBCABB3
:100BA00069A97AA98BA99CA920E030E040E85FE31D
:100BB0000E94790388232CF481E090E098AB8FA702
:100BC0003FC069A97AA98BA99CA920E03FEF4FE714
:100BD00057E40E94190318164CF56DA97EA98FA938
:100BE00098AD20E030E040E251E40E941F02DC01B9
:100BF000CB01BC01CD010E944900DC01CB0198ABC7
:100C00008FA70FC088EC90E09EA78DA78DA59EA50D
:100C10000197F1F79EA78DA78FA598A9019798AB8B
:100C20008FA78FA598A9009769F714C069A97AA919
:100C30008BA99CA90E944900DC01CB0198AB8FA72E
:100C40008FA598A99CA78BA78BA59CA50197F1F7C9
:100C50009CA78BA78CE30E94920780E090E0A0E81D
:100C6000BFE38FA398A7A9A7BAA76FA178A589A565
:100C70009AA520E030E04AEF54E40E941F02DC0114
:100C8000CB018BA39CA3ADA3BEA36BA17CA18DA123
:100C90009EA120E030E040E85FE30E9479038823D2
:100CA0002CF481E090E09AA389A33FC06BA17CA1C2
:100CB0008DA19EA120E03FEF4FE757E40E9419036A
:100CC00018164CF56FA178A589A59AA520E030E00B
:100CD00040E251E40E941F02DC01CB01BC01CD01C6
:100CE0000E944900DC01CB019AA389A30FC088ECC4
:100CF00090E098A38F8F8F8D98A10197F1F798A31B
:100D00008F8F89A19AA101979AA389A389A19AA1FA
:100D1000009769F714C06BA17CA18DA19EA10E94D0
:100D20004900DC01CB019AA389A389A19AA19E8FD6
:100D30008D8F8D8D9E8D0197F1F79E8F8D8F8FE01A
:100D40000E94920780E090E0A0E8BFE3898F9A8F2D
:100D5000AB8FBC8F698D7A8D8B8D9C8D20E030E0C0
:100D60004AEF54E40E941F02DC01CB018D8B9E8B65
:100D7000AF8BB88F6D897E898F89988D20E030E0A8
:100D800040E85FE30E94790388232CF481E090E03F
:100D90009C8B8B8B3FC06D897E898F89988D20E0DD
:100DA0003FEF4FE757E40E94190318164CF5698D81
:100DB0007A8D8B8D9C8D20E030E040E251E40E94E2
:100DC0001F02DC01CB01BC01CD010E944900DC0106
:100DD000CB019C8B8B8B0FC088EC90E09A8B898B1E
:100DE00089899A890197F1F79A8B898B8B899C89DC
:100DF00001979C8B8B8B8B899C89009769F714C01A
:100E00006D897E898F89988D0E944900DC01CB0114
:100E10009C8B8B8B8B899C89988B8F878F859889EE
:100E20000197F1F7988B8F8781E00E94920780E00D
:100E300090E0A0E0B0E48B879C87AD87BE876B8590
:100E40007C858D859E8520E030E04AEF54E40E9449
:100E50001F02DC01CB018F839887A987BA876F8136
:100E6000788589859A8520E030E040E85FE30E943C
:100E7000790388232CF481E090E09E838D833FC02A
:100E80006F81788589859A8520E03FEF4FE757E4A9
:100E90000E94190318164CF56B857C858D859E85FF
:100EA00020E030E040E251E40E941F02DC01CB016F
:100EB000BC01CD010E944900DC01CB019E838D83E2
:100EC0000FC088EC90E09C838B838B819C81019781
:100ED000F1F79C838B838D819E8101979E838D8307
:100EE0008D819E81009769F714C06F81788589850F
:100EF0009A850E944900DC01CB019E838D838D8100
:100F00009E819A83898389819A810197F1F79A83D7
:100F10008983E8960FB6F894DEBF0FBECDBFCF91A0
:100F2000DF910895DF93CF93CDB7DEB72F970FB63C
:100F3000F894DEBF0FBECDBF8F87ABE3B0E0EBE32D
:100F4000F0E080818E7F8C93ABE3B0E0EBE3F0E0E8
:100F500080818D7F8C93E5E3F0E08F858083ABE328
:100F6000B0E0EBE3F0E0808184608C9380E090E07F
:100F7000A0E0B0E48B879C87AD87BE876B857C85BE
:100F80008D859E8520E030E04AEF54E40E941F02E8
:100F9000DC01CB018F839887A987BA876F81788519
:100FA00089859A8520E030E040E85FE30E9479037C
:100FB00088232CF481E090E09E838D833FC06F8175
:100FC000788589859A8520E03FEF4FE757E40E94B6
:100FD000190318164CF56B857C858D859E8520E060
:100FE00030E040E251E40E941F02DC01CB01BC0171
:100FF000CD010E944900DC01CB019E838D830FC08F
:1010000088EC90E09C838B838B819C810197F1F726
:101010009C838B838D819E8101979E838D838D819F
:101020009E81009769F714C06F81788589859A85BC
:101030000E944900DC01CB019E838D838D819E81BE
:101040009A83898389819A810197F1F79A838983A9
:10105000ABE3B0E0EBE3F0E080818B7F8C932F96E5
:101060000FB6F894DEBF0FBECDBFCF91DF910895CC
:10107000DF93CF93CDB7DEB72F970FB6F894DEBFCF
:101080000FBECDBF8F87ABE3B0E0EBE3F0E0808134
:1010900081608C93ABE3B0E0EBE3F0E080818D7F87
:1010A0008C93E5E3F0E08F858083ABE3B0E0EBE386
:1010B000F0E0808184608C9380E090E0A0E0B0E478
:1010C0008B879C87AD87BE876B857C858D859E854C
:1010D00020E030E04AEF54E40E941F02DC01CB0123
:1010E0008F839887A987BA876F81788589859A8544
:1010F00020E030E040E85FE30E94790388232CF48D
:1011000081E090E09E838D833FC06F8178858985E3
:101110009A8520E03FEF4FE757E40E941903181625
:101120004CF56B857C858D859E8520E030E040E226
:1011300051E40E941F02DC01CB01BC01CD010E94E1
:101140004900DC01CB019E838D830FC088EC90E0C9
:101150009C838B838B819C810197F1F79C838B838C
:101160008D819E8101979E838D838D819E810097C5
:1011700069F714C06F81788589859A850E94490036
:10118000DC01CB019E838D838D819E819A8389832F
:1011900089819A810197F1F79A838983ABE3B0E063
:1011A000EBE3F0E080818B7F8C932F960FB6F89461
:1011B000DEBF0FBECDBFCF91DF910895DF93CF93F8
:1011C000CDB7DEB72F970FB6F894DEBF0FBECDBFF9
:1011D0008F87ABE3B0E0EBE3F0E0808181608C933C
:1011E000ABE3B0E0EBE3F0E080818D7F8C93E5E34F
:1011F000F0E08F85805D8083ABE3B0E0EBE3F0E06F
:10120000808184608C9380E090E0A0E0B0E48B87E4
:101210009C87AD87BE876B857C858D859E8520E00C
:1012200030E04AEF54E40E941F02DC01CB018F83BF
:101230009887A987BA876F81788589859A8520E004
:1012400030E040E85FE30E94790388232CF481E0DA
:1012500090E09E838D833FC06F81788589859A85D4
:1012600020E03FEF4FE757E40E94190318164CF5B2
:101270006B857C858D859E8520E030E040E251E4E1
:101280000E941F02DC01CB01BC01CD010E9449007C
:10129000DC01CB019E838D830FC088EC90E09C83A2
:1012A0008B838B819C810197F1F79C838B838D814C
:1012B0009E8101979E838D838D819E81009769F722
:1012C00014C06F81788589859A850E944900DC0168
:1012D000CB019E838D838D819E819A8389838981B1
:1012E0009A810197F1F79A838983ABE3B0E0EBE34E
:1012F000F0E080818B7F8C932F960FB6F894DEBF41
:101300000FBECDBFCF91DF910895DF93CF93CDB7BF
:10131000DEB729970FB6F894DEBF0FBECDBF998711
:1013200088871A8285E0FE013396DF01982F1D928F
:101330009A95E9F71DC08A81E82FF0E088859985A4
:101340002AE030E0B9010E949A10282FCE010396BE
:10135000E80FF91F2083888599852AE030E0B901DC
:101360000E949A10CB01998788878A818F5F8A8330
:10137000888599850097F9F68A8181508A838A81C8
:10138000898310C08981282F332727FD3095CE010E
:101390000396FC01E20FF31F80810E94DE08898121
:1013A00081508983898188236CF729960FB6F89438
:1013B000DEBF0FBECDBFCF91DF910895DF93CF93F6
:1013C000CDB7DEB762970FB6F894DEBF0FBECDBFC4
:1013D0009A8B898B188A1F8681C02F8538898989C5
:1013E0009A89FC01E20FF31F80810E9438088F85E3
:1013F00098890196988B8F8780E090E0A0E2B1E415
:101400008B879C87AD87BE876B857C858D859E8508
:1014100020E030E04AEF54E40E941F02DC01CB01DF
:101420008F839887A987BA876F81788589859A8500
:1014300020E030E040E85FE30E94790388232CF449
:1014400081E090E09E838D833FC06F8178858985A0
:101450009A8520E03FEF4FE757E40E9419031816E2
:101460004CF56B857C858D859E8520E030E040E2E3
:1014700051E40E941F02DC01CB01BC01CD010E949E
:101480004900DC01CB019E838D830FC088EC90E086
:101490009C838B838B819C810197F1F79C838B8349
:1014A0008D819E8101979E838D838D819E81009782
:1014B00069F714C06F81788589859A850E944900F3
:1014C000DC01CB019E838D838D819E819A838983EC
:1014D00089819A810197F1F79A8389832F853889C9
:1014E00089899A89FC01E20FF31F8081882309F022
:1014F00074CF62960FB6F894DEBF0FBECDBFCF910A
:10150000DF910895DF93CF9300D000D0CDB7DEB741
:1015100089836A838981282F30E03C832B838B81E8
:101520009C81009731F02B813C812130310531F0D5
:1015300009C08A8180580E94920704C08A81805421
:101540000E9492070F900F900F900F90CF91DF9114
:101550000895DF93CF93CDB7DEB7E1E3F0E080EFFE
:101560008083E2E3F0E08FEF8083CF91DF910895F5
:10157000DF93CF93CDB7DEB764970FB6F894DEBF95
:101580000FBECDBF9C8B8B8B1F8684E0898B30C0B8
:1015900083E0698940E00E94B80E188A1EC09E014F
:1015A0002E5E3F4F83E06889A9010E94AD0F8A89B2
:1015B000882381F48889882F90E0880F991F880FED
:1015C000991F982F8989890F8450EB89FC89808322
:1015D00081E08F8788898F5F888B88898430F8F2D3
:1015E00083E0698941E00E94B80E89898F5F898B09
:1015F0008989883068F280E090E0A8E4B3E48B87C2
:101600009C87AD87BE876B857C858D859E8520E018
:1016100030E04AEF54E40E941F02DC01CB018F83CB
:101620009887A987BA876F81788589859A8520E010
:1016300030E040E85FE30E94790388232CF481E0E6
:1016400090E09E838D833FC06F81788589859A85E0
:1016500020E03FEF4FE757E40E94190318164CF5BE
:101660006B857C858D859E8520E030E040E251E4ED
:101670000E941F02DC01CB01BC01CD010E94490088
:10168000DC01CB019E838D830FC088EC90E09C83AE
:101690008B838B819C810197F1F79C838B838D8158
:1016A0009E8101979E838D838D819E81009769F72E
:1016B00014C06F81788589859A850E944900DC0174
:1016C000CB019E838D838D819E819A8389838981BD
:1016D0009A810197F1F79A8389838F8564960FB673
:1016E000F894DEBF0FBECDBFCF91DF910895DF9399
:1016F000CF9300D00F92CDB7DEB769837A838B8307
:101700008981813019F58A81813031F48B81813072
:1017100019F40E94E60C5CC08A81813031F48B811F
:10172000823019F40E94CA0C53C08A81813031F48E
:101730008B81833019F40E94020D4AC0ABE5B0E002
:10174000EBE5F0E080818F7B8C9342C08981823011
:1017500019F58A81813031F48B81813019F40E942E
:101760003A0D36C08A81813031F48B81823019F490
:101770000E941E0D2DC08A81813031F48B8183300F
:1017800019F40E94560D24C0ABE5B0E0EBE5F0E0A3
:1017900080818F778C931CC089818330C9F48A81C2
:1017A000813031F48B81813019F40E94870D10C093
:1017B0008A81813031F48B81823019F40E94720D5C
:1017C00007C0ABE5B0E0EBE5F0E080818F7D8C9366
:1017D0000F900F900F90CF91DF910895DF93CF93EB
:1017E000CDB7DEB7609168007091690080916A00A2
:1017F0000E94770B60916B0070916C0080916D007E
:101800000E94770B60916E0070916F008091700064
:101810000E94770BCF91DF910895DF93CF9300D093
:10182000CDB7DEB79A83898389819A8190937300BB
:10183000809372000F900F90CF91DF910895DF9306
:10184000CF9300D0CDB7DEB79A83898389819A81FF
:1018500090937500809374000F900F90CF91DF915B
:101860000895DF93CF9300D0CDB7DEB79A838983F5
:1018700089819A8190937700809376000F900F90E2
:10188000CF91DF9108951F920F920FB60F921124FE
:101890002F933F934F935F936F937F938F939F9378
:1018A000AF93BF93EF93FF93DF93CF93CDB7DEB7A3
:1018B000E0917200F09173000995CF91DF91FF9153
:1018C000EF91BF91AF919F918F917F916F915F91B8
:1018D0004F913F912F910F900FBE0F901F90189531
:1018E0001F920F920FB60F9211242F933F934F9395
:1018F0005F936F937F938F939F93AF93BF93EF9378
:10190000FF93DF93CF93CDB7DEB7E0917400F091F2
:1019100075000995CF91DF91FF91EF91BF91AF9144
:101920009F918F917F916F915F914F913F912F91F7
:101930000F900FBE0F901F9018951F920F920FB629
:101940000F9211242F933F934F935F936F937F9345
:101950008F939F93AF93BF93EF93FF93DF93CF93B7
:10196000CDB7DEB7E0917600F09177000995CF9181
:10197000DF91FF91EF91BF91AF919F918F917F91F7
:101980006F915F914F913F912F910F900FBE0F90EC
:101990001F901895DF93CF93CDB7DEB7ABE5B0E0DE
:1019A000EBE5F0E0808180648C93A5E5B0E0E5E5AF
:1019B000F0E080818E7F8C93A5E5B0E0E5E5F0E076
:1019C000808182608C93CF91DF910895DF93CF93D4
:1019D000CDB7DEB7ABE5B0E0EBE5F0E08081806449
:1019E0008C93A5E5B0E0E5E5F0E0808181608C9323
:1019F000A5E5B0E0E5E5F0E0808182608C93CF91D1
:101A0000DF910895DF93CF93CDB7DEB7ABE5B0E0BC
:101A1000EBE5F0E0808180648C93A5E5B0E0E5E53E
:101A2000F0E0808181608C93A5E5B0E0E5E5F0E031
:101A300080818D7F8C93CF91DF910895DF93CF9339
:101A4000CDB7DEB7ABE5B0E0EBE5F0E080818068D4
:101A50008C93A5E5B0E0E5E5F0E080818B7F8C9389
:101A6000A5E5B0E0E5E5F0E0808188608C93CF915A
:101A7000DF910895DF93CF93CDB7DEB7ABE5B0E04C
:101A8000EBE5F0E0808180688C93A5E5B0E0E5E5CA
:101A9000F0E0808184608C93A5E5B0E0E5E5F0E0BE
:101AA000808188608C93CF91DF910895DF93CF93ED
:101AB000CDB7DEB7ABE5B0E0EBE5F0E0808180626A
:101AC0008C93A5E5B0E0E5E5F0E0808184608C933F
:101AD000A5E5B0E0E5E5F0E08081877F8C93CF91CC
:101AE000DF910895DF93CF93CDB7DEB7ABE5B0E0DC
:101AF000EBE5F0E0808180628C93A4E5B0E0E4E562
:101B0000F0E080818F7B8C93CF91DF910895DF93FC
:101B1000CF93CDB7DEB7ABE5B0E0EBE5F0E0808189
:101B200080628C93A4E5B0E0E4E5F0E0808180641D
:101B30008C93CF91DF910895DF93CF93CDB7DEB72C
:101B4000EAE3F0E08FEF8083E7E3F0E08FEF80835C
:101B5000E4E3F0E08FEF8083E1E3F0E08FEF808358
:101B6000EBE3F0E08FEF8083E8E3F0E08FEF80833A
:101B7000E5E3F0E08FEF8083E2E3F0E08FEF808336
:101B8000CF91DF910895DF93CF9300D000D000D0A4
:101B9000CDB7DEB78A836B834C8319828A81282F65
:101BA00030E03E832D838D819E818130910509F443
:101BB00047C02D813E81223031052CF48D819E81DC
:101BC000009771F0CBC02D813E812230310509F4A0
:101BD00067C08D819E818330910509F491C0BEC09C
:101BE0008C818130A1F4AAE3B0E0EAE3F0E08081E7
:101BF000482F8B81282F30E081E090E0022E02C038
:101C0000880F991F0A94E2F7842B8C93A7C08C81CC
:101C1000882309F0A3C0AAE3B0E0EAE3F0E0808102
:101C2000482F8B81282F30E081E090E0022E02C007
:101C3000880F991F0A94E2F7809584238C938EC0B5
:101C40008C818130A1F4A7E3B0E0E7E3F0E080818C
:101C5000482F8B81282F30E081E090E0022E02C0D7
:101C6000880F991F0A94E2F7842B8C9377C08C819C
:101C7000882309F073C0A7E3B0E0E7E3F0E08081D8
:101C8000482F8B81282F30E081E090E0022E02C0A7
:101C9000880F991F0A94E2F7809584238C935EC085
:101CA0008C818130A1F4A4E3B0E0E4E3F0E0808132
:101CB000482F8B81282F30E081E090E0022E02C077
:101CC000880F991F0A94E2F7842B8C9347C08C816C
:101CD000882309F043C0A4E3B0E0E4E3F0E08081AE
:101CE000482F8B81282F30E081E090E0022E02C047
:101CF000880F991F0A94E2F7809584238C932EC055
:101D00008C818130A1F4A1E3B0E0E1E3F0E08081D7
:101D1000482F8B81282F30E081E090E0022E02C016
:101D2000880F991F0A94E2F7842B8C9317C08C813B
:101D30008823A1F4A1E3B0E0E1E3F0E08081482F43
:101D40008B81282F30E081E090E0022E02C0880FC6
:101D5000991F0A94E2F7809584238C9389812696B3
:101D60000FB6F894DEBF0FBECDBFCF91DF910895BF
:101D7000DF93CF9300D000D000D0CDB7DEB78A83F9
:101D80006B834C8319828A81282F30E03E832D8318
:101D90008D819E818130910509F447C02D813E815E
:101DA000223031052CF48D819E81009771F0CBC0DB
:101DB0002D813E812230310509F467C08D819E81DD
:101DC0008330910509F491C0BEC08C818130A1F4AB
:101DD000ABE3B0E0EBE3F0E08081482F8B81282F6C
:101DE00030E081E090E0022E02C0880F991F0A9433
:101DF000E2F7842B8C93A7C08C81882309F0A3C0C1
:101E0000ABE3B0E0EBE3F0E08081482F8B81282F3B
:101E100030E081E090E0022E02C0880F991F0A9402
:101E2000E2F7809584238C938EC08C818130A1F45D
:101E3000A8E3B0E0E8E3F0E08081482F8B81282F11
:101E400030E081E090E0022E02C0880F991F0A94D2
:101E5000E2F7842B8C9377C08C81882309F073C0C0
:101E6000A8E3B0E0E8E3F0E08081482F8B81282FE1
:101E700030E081E090E0022E02C0880F991F0A94A2
:101E8000E2F7809584238C935EC08C818130A1F42D
:101E9000A5E3B0E0E5E3F0E08081482F8B81282FB7
:101EA00030E081E090E0022E02C0880F991F0A9472
:101EB000E2F7842B8C9347C08C81882309F043C0C0
:101EC000A5E3B0E0E5E3F0E08081482F8B81282F87
:101ED00030E081E090E0022E02C0880F991F0A9442
:101EE000E2F7809584238C932EC08C818130A1F4FD
:101EF000A2E3B0E0E2E3F0E08081482F8B81282F5D
:101F000030E081E090E0022E02C0880F991F0A9411
:101F1000E2F7842B8C9317C08C818823A1F4A2E371
:101F2000B0E0E2E3F0E08081482F8B81282F30E0A1
:101F300081E090E0022E02C0880F991F0A94E2F718
:101F4000809584238C93898126960FB6F894DEBF02
:101F50000FBECDBFCF91DF910895DF93CF93CDB763
:101F6000DEB727970FB6F894DEBF0FBECDBF8A83CA
:101F70006B835D834C8319828A81282F30E03F83F5
:101F80002E834E815F814130510559F18E819F81B1
:101F90008230910534F42E813F812115310569F09D
:101FA0005BC04E815F814230510579F18E819F8106
:101FB0008330910509F43DC04FC0E9E3F0E0808132
:101FC000282F30E08B81882F90E0A90102C0559521
:101FD00047958A95E2F7CA018170EC81FD81808383
:101FE0003BC0E6E3F0E08081282F30E08B81882F32
:101FF00090E0A90102C0559547958A95E2F7CA017C
:102000008170EC81FD81808327C0E3E3F0E0808173
:10201000282F30E08B81882F90E0A90102C05595D0
:1020200047958A95E2F7CA018170EC81FD81808332
:1020300013C0E0E3F0E08081282F30E08B81882F0F
:1020400090E0A90102C0559547958A95E2F7CA012B
:102050008170EC81FD818083898127960FB6F89489
:10206000DEBF0FBECDBFCF91DF910895DF93CF9339
:1020700000D00F92CDB7DEB78A836B8319828A8135
:10208000882F90E0009721F4EAE3F0E08B818083D1
:1020900089810F900F900F90CF91DF910895DF937A
:1020A000CF9300D00F92CDB7DEB78A836B831982AE
:1020B0008A81882F90E0009721F4EBE3F0E08B8198
:1020C000808389810F900F900F90CF91DF910895B9
:1020D000DF93CF9300D000D0CDB7DEB78A837C8367
:1020E0006B8319828A81882F90E0009731F4E9E3AD
:1020F000F0E08081EB81FC81808389810F900F90DB
:102100000F900F90CF91DF910895DF93CF930F92AF
:10211000CDB7DEB70E94A90A0E94A305CE010196A1
:102120000E94B80A8823D1F38981882F90E00E9409
:102130008509F4CFAA1BBB1B51E107C0AA1FBB1F17
:10214000A617B70710F0A61BB70B881F991F5A9543
:10215000A9F780959095BC01CD0108952F923F92EB
:102160004F925F926F927F928F929F92AF92BF92A7
:10217000CF92DF92EF92FF920F931F93CF93DF9353
:10218000CDB7DEB7CA1BDB0B0FB6F894DEBF0FBEB0
:10219000CDBF09942A88398848885F846E847D84FD
:1021A0008C849B84AA84B984C884DF80EE80FD80FF
:1021B0000C811B81AA81B981CE0FD11D0FB6F89475
:0E21C000DEBF0FBECDBFED010895F894FFCF36
:1021CE0000000000000000000101030201010301F4
:0221DE000100FE
:00000001FF
